{
  "contractName": "Raffles",
  "abi": [
    {
      "constant": true,
      "inputs": [
        {
          "name": "",
          "type": "uint256"
        }
      ],
      "name": "raffles",
      "outputs": [
        {
          "name": "id",
          "type": "uint256"
        },
        {
          "name": "goal",
          "type": "uint256"
        },
        {
          "name": "numberOfParticipants",
          "type": "uint256"
        },
        {
          "name": "closed",
          "type": "bool"
        },
        {
          "components": [
            {
              "name": "amount",
              "type": "uint256"
            },
            {
              "name": "id",
              "type": "address"
            },
            {
              "name": "firstName",
              "type": "bytes32"
            },
            {
              "name": "lastName",
              "type": "bytes32"
            },
            {
              "name": "email",
              "type": "string"
            },
            {
              "name": "college",
              "type": "string"
            },
            {
              "name": "major",
              "type": "string"
            }
          ],
          "name": "winner",
          "type": "tuple"
        }
      ],
      "payable": false,
      "stateMutability": "view",
      "type": "function"
    },
    {
      "inputs": [],
      "payable": false,
      "stateMutability": "nonpayable",
      "type": "constructor"
    },
    {
      "anonymous": false,
      "inputs": [
        {
          "indexed": true,
          "name": "_id",
          "type": "uint256"
        }
      ],
      "name": "registered",
      "type": "event"
    },
    {
      "anonymous": false,
      "inputs": [
        {
          "indexed": false,
          "name": "_trigger",
          "type": "bool"
        }
      ],
      "name": "runRaffle",
      "type": "event"
    },
    {
      "constant": false,
      "inputs": [
        {
          "name": "_firstName",
          "type": "bytes32"
        },
        {
          "name": "_lastName",
          "type": "bytes32"
        },
        {
          "name": "_email",
          "type": "string"
        },
        {
          "name": "_college",
          "type": "string"
        },
        {
          "name": "_major",
          "type": "string"
        },
        {
          "name": "_id",
          "type": "uint256"
        },
        {
          "name": "_goal",
          "type": "uint256"
        }
      ],
      "name": "register",
      "outputs": [],
      "payable": false,
      "stateMutability": "nonpayable",
      "type": "function"
    },
    {
      "constant": true,
      "inputs": [
        {
          "name": "_id",
          "type": "uint256"
        }
      ],
      "name": "getRaffle",
      "outputs": [
        {
          "name": "",
          "type": "uint256"
        },
        {
          "name": "",
          "type": "uint256"
        },
        {
          "name": "",
          "type": "bool"
        },
        {
          "name": "",
          "type": "address[]"
        }
      ],
      "payable": false,
      "stateMutability": "view",
      "type": "function"
    },
    {
      "constant": true,
      "inputs": [
        {
          "name": "_raffleId",
          "type": "uint256"
        }
      ],
      "name": "getWinner",
      "outputs": [
        {
          "name": "",
          "type": "address"
        },
        {
          "name": "",
          "type": "bytes32"
        },
        {
          "name": "",
          "type": "bytes32"
        },
        {
          "name": "",
          "type": "string"
        },
        {
          "name": "",
          "type": "string"
        },
        {
          "name": "",
          "type": "string"
        }
      ],
      "payable": false,
      "stateMutability": "view",
      "type": "function"
    },
    {
      "constant": false,
      "inputs": [],
      "name": "contractdisable",
      "outputs": [],
      "payable": false,
      "stateMutability": "nonpayable",
      "type": "function"
    }
  ],
  "bytecode": "0x608060405234801561001057600080fd5b50336000806101000a81548173ffffffffffffffffffffffffffffffffffffffff021916908373ffffffffffffffffffffffffffffffffffffffff16021790555061117c806100606000396000f30060806040526004361061006d576000357c0100000000000000000000000000000000000000000000000000000000900463ffffffff1680634129b2c91461007257806349ea695f146102415780635d4bc0ce1461036657806369a9c74b146103c7578063e4dafec9146103de575b600080fd5b34801561007e57600080fd5b5061009d60048036038101908080359060200190929190505050610479565b604051808773ffffffffffffffffffffffffffffffffffffffff1673ffffffffffffffffffffffffffffffffffffffff16815260200186600019166000191681526020018560001916600019168152602001806020018060200180602001848103845287818151815260200191508051906020019080838360005b83811015610133578082015181840152602081019050610118565b50505050905090810190601f1680156101605780820380516001836020036101000a031916815260200191505b50848103835286818151815260200191508051906020019080838360005b8381101561019957808201518184015260208101905061017e565b50505050905090810190601f1680156101c65780820380516001836020036101000a031916815260200191505b50848103825285818151815260200191508051906020019080838360005b838110156101ff5780820151818401526020810190506101e4565b50505050905090810190601f16801561022c5780820380516001836020036101000a031916815260200191505b50995050505050505050505060405180910390f35b34801561024d57600080fd5b5061036460048036038101908080356000191690602001909291908035600019169060200190929190803590602001908201803590602001908080601f0160208091040260200160405190810160405280939291908181526020018383808284378201915050505050509192919290803590602001908201803590602001908080601f0160208091040260200160405190810160405280939291908181526020018383808284378201915050505050509192919290803590602001908201803590602001908080601f01602080910402602001604051908101604052809392919081815260200183838082843782019150505050505091929192908035906020019092919080359060200190929190505050610786565b005b34801561037257600080fd5b5061039160048036038101908080359060200190929190505050610b97565b60405180868152602001858152602001848152602001831515151581526020018281526020019550505050505060405180910390f35b3480156103d357600080fd5b506103dc610e55565b005b3480156103ea57600080fd5b5061040960048036038101908080359060200190929190505050610f45565b604051808581526020018481526020018315151515815260200180602001828103825283818151815260200191508051906020019060200280838360005b83811015610462578082015181840152602081019050610447565b505050509050019550505050505060405180910390f35b600080600060608060606000809054906101000a900473ffffffffffffffffffffffffffffffffffffffff1673ffffffffffffffffffffffffffffffffffffffff163373ffffffffffffffffffffffffffffffffffffffff161415156104de57600080fd5b60028761012c811015156104ee57fe5b600d020160050160010160009054906101000a900473ffffffffffffffffffffffffffffffffffffffff1660028861012c8110151561052957fe5b600d02016005016002015460028961012c8110151561054457fe5b600d02016005016003015460028a61012c8110151561055f57fe5b600d020160050160040160028b61012c8110151561057957fe5b600d020160050160050160028c61012c8110151561059357fe5b600d0201600501600601828054600181600116156101000203166002900480601f0160208091040260200160405190810160405280929190818152602001828054600181600116156101000203166002900480156106325780601f1061060757610100808354040283529160200191610632565b820191906000526020600020905b81548152906001019060200180831161061557829003601f168201915b50505050509250818054600181600116156101000203166002900480601f0160208091040260200160405190810160405280929190818152602001828054600181600116156101000203166002900480156106ce5780601f106106a3576101008083540402835291602001916106ce565b820191906000526020600020905b8154815290600101906020018083116106b157829003601f168201915b50505050509150808054600181600116156101000203166002900480601f01602080910402602001604051908101604052809291908181526020018280546001816001161561010002031660029004801561076a5780601f1061073f5761010080835404028352916020019161076a565b820191906000526020600020905b81548152906001019060200180831161074d57829003601f168201915b5050505050905095509550955095509550955091939550919395565b61078e61104f565b6000151560028461012c811015156107a257fe5b600d020160030160009054906101000a900460ff1615151415156107c557600080fd5b603260028461012c811015156107d757fe5b600d020160020154111515156107ec57600080fd5b6000151560028461012c8110151561080057fe5b600d0201600c0160003373ffffffffffffffffffffffffffffffffffffffff1673ffffffffffffffffffffffffffffffffffffffff16815260200190815260200160002060060160009054906101000a900460ff16151514151561086357600080fd5b603260028461012c8110151561087557fe5b600d02016002015414156108f457600160028461012c8110151561089557fe5b600d020160030160006101000a81548160ff0219169083151502179055507fb48394dc3075e6ca0038354faca1d6da336f8f1179db4ada2c5f267f186797356001604051808215151515815260200191505060405180910390a1610b8d565b60e0604051908101604052803373ffffffffffffffffffffffffffffffffffffffff16815260200189600019168152602001886000191681526020018781526020018681526020018581526020016001151581525090508060028461012c8110151561095c57fe5b600d0201600c0160003373ffffffffffffffffffffffffffffffffffffffff1673ffffffffffffffffffffffffffffffffffffffff16815260200190815260200160002060008201518160000160006101000a81548173ffffffffffffffffffffffffffffffffffffffff021916908373ffffffffffffffffffffffffffffffffffffffff16021790555060208201518160010190600019169055604082015181600201906000191690556060820151816003019080519060200190610a239291906110ab565b506080820151816004019080519060200190610a409291906110ab565b5060a0820151816005019080519060200190610a5d9291906110ab565b5060c08201518160060160006101000a81548160ff021916908315150217905550905050600160028461012c81101515610a9357fe5b600d020160020160008282540192505081905550600060028461012c81101515610ab957fe5b600d0201600101541415610ae4578160028461012c81101515610ad857fe5b600d0201600101819055505b60028361012c81101515610af457fe5b600d02016004013390806001815401808255809150509060018203906000526020600020016000909192909190916101000a81548173ffffffffffffffffffffffffffffffffffffffff021916908373ffffffffffffffffffffffffffffffffffffffff16021790555050827fe6cf13467d222a9bff8285bb981a618844afe23013a907fb49b2ea802d1c19e860405160405180910390a25b5050505050505050565b60028161012c81101515610ba757fe5b600d02016000915090508060000154908060010154908060020154908060030160009054906101000a900460ff16908060050160e06040519081016040529081600082015481526020016001820160009054906101000a900473ffffffffffffffffffffffffffffffffffffffff1673ffffffffffffffffffffffffffffffffffffffff1673ffffffffffffffffffffffffffffffffffffffff168152602001600282015460001916600019168152602001600382015460001916600019168152602001600482018054600181600116156101000203166002900480601f016020809104026020016040519081016040528092919081815260200182805460018160011615610100020316600290048015610d035780601f10610cd857610100808354040283529160200191610d03565b820191906000526020600020905b815481529060010190602001808311610ce657829003601f168201915b50505050508152602001600582018054600181600116156101000203166002900480601f016020809104026020016040519081016040528092919081815260200182805460018160011615610100020316600290048015610da55780601f10610d7a57610100808354040283529160200191610da5565b820191906000526020600020905b815481529060010190602001808311610d8857829003601f168201915b50505050508152602001600682018054600181600116156101000203166002900480601f016020809104026020016040519081016040528092919081815260200182805460018160011615610100020316600290048015610e475780601f10610e1c57610100808354040283529160200191610e47565b820191906000526020600020905b815481529060010190602001808311610e2a57829003601f168201915b505050505081525050905085565b6000809054906101000a900473ffffffffffffffffffffffffffffffffffffffff1673ffffffffffffffffffffffffffffffffffffffff163373ffffffffffffffffffffffffffffffffffffffff16141515610eb057600080fd5b3373ffffffffffffffffffffffffffffffffffffffff166000809054906101000a900473ffffffffffffffffffffffffffffffffffffffff1673ffffffffffffffffffffffffffffffffffffffff16141515610f0b57600080fd5b6000809054906101000a900473ffffffffffffffffffffffffffffffffffffffff1673ffffffffffffffffffffffffffffffffffffffff16ff5b6000806000606060028561012c81101515610f5c57fe5b600d02016000015460028661012c81101515610f7457fe5b600d02016001015460028761012c81101515610f8c57fe5b600d020160030160009054906101000a900460ff1660028861012c81101515610fb157fe5b600d02016004018080548060200260200160405190810160405280929190818152602001828054801561103957602002820191906000526020600020905b8160009054906101000a900473ffffffffffffffffffffffffffffffffffffffff1673ffffffffffffffffffffffffffffffffffffffff1681526020019060010190808311610fef575b5050505050905093509350935093509193509193565b60e060405190810160405280600073ffffffffffffffffffffffffffffffffffffffff16815260200160008019168152602001600080191681526020016060815260200160608152602001606081526020016000151581525090565b828054600181600116156101000203166002900490600052602060002090601f016020900481019282601f106110ec57805160ff191683800117855561111a565b8280016001018555821561111a579182015b828111156111195782518255916020019190600101906110fe565b5b509050611127919061112b565b5090565b61114d91905b80821115611149576000816000905550600101611131565b5090565b905600a165627a7a7230582085f985d48054e45f65437c52f6c96c37e352d26c69616147cfa0043d89cbc1810029",
  "source": "pragma solidity ^0.4.18;\n\n//todo: randomization using oracle\ncontract Raffles {\n\n    address private admin;\n    mapping(address => Winner) winners;\n\n\n    modifier onlyAdmin() {\n        require(msg.sender == admin);\n        _;\n    }\n\n    constructor() public {\n        admin = msg.sender;\n    }\n\n    struct Raffle {\n        uint id;\n        uint goal;\n        uint numberOfParticipants;\n        bool closed;\n        address[] players;\n        Winner winner;\n        mapping(address => Player) player;\n    }\n\n    Raffle[300] public raffles;\n\n    struct Player {\n        address id;\n        bytes32 firstName;\n        bytes32 lastName;\n        string email;\n        string college;\n        string major;\n        // string ipfsHash;\n        bool registered;\n    }\n\n    struct Winner {\n        uint amount;\n        address id;\n        bytes32 firstName;\n        bytes32 lastName;\n        string email;\n        string college;\n        string major;\n    }\n\n    // function saveHash(string _ipfsHash, uint raffleId) public {\n    //     raffles[raffleId].raffle[msg.sender].ipfsHash = _ipfsHash;\n    // }\n\n    event registered(uint indexed _id);\n    event runRaffle(bool _trigger);\n\n    function register(bytes32 _firstName, bytes32 _lastName,\n                      string _email, string _college,\n                      string _major, uint _id, uint _goal) public {\n\n        //check if raffle is open -> should happen on front end using a disable button if closed is set to true\n        require(raffles[_id].closed == false);\n\n        //check if player limit is reached\n        require(raffles[_id].numberOfParticipants <= 50);\n\n        //check if user has registered before\n        require(raffles[_id].player[msg.sender].registered == false);\n\n\n        if(raffles[_id].numberOfParticipants == 50)\n        {\n            raffles[_id].closed = true;\n\n            //send event to client\n            emit runRaffle(true);\n        }\n        else\n        {\n\n            //create  new player\n            Player memory currentPlayer = Player(msg.sender, _firstName, _lastName, _email, _college, _major, true);\n\n            //store the player's properties\n            raffles[_id].player[msg.sender] = currentPlayer;\n\n            //update the raffle's properties\n            raffles[_id].numberOfParticipants += 1;\n\n            if(raffles[_id].goal == 0)\n            {\n                raffles[_id].goal = _goal;\n            }\n\n            //push the user into the array of players from the Raffle struct\n            raffles[_id].players.push(msg.sender);\n\n            //send event to client\n            emit registered(_id);\n        }\n    }\n\n    function getRaffle(uint _id) public constant returns (uint ,uint, bool, address[]) {\n        return (raffles[_id].id,\n                raffles[_id].goal,\n                raffles[_id].closed,\n                raffles[_id].players);\n\n        getWinner(_id);\n\n    }\n\n\n\n    // function getPlayer(uint _raffleId, address _id) public constant returns (bytes32, bytes32, string, string, string, bool) {\n    //     return (raffles[_raffleId].player[_id].firstName,\n    //             raffles[_raffleId].player[_id].lastName,\n    //             raffles[_raffleId].player[_id].email,\n    //             raffles[_raffleId].player[_id].college,\n    //             raffles[_raffleId].player[_id].major,\n    //             raffles[_raffleId].player[_id].registered);\n\n    // }\n\n    //call from client to store random number\n    function declareWinner(uint _winnerId, uint _raffleId) private onlyAdmin returns (address, bytes32, bytes32, string, string, string) {\n\n        address winnerAddress = raffles[_raffleId].players[_winnerId];\n\n        Player memory playerStruct = raffles[_raffleId].player[winnerAddress];\n\n        winners[winnerAddress] = Winner(raffles[_raffleId].goal,\n                                                playerStruct.id,\n                                                playerStruct.firstName,\n                                                playerStruct.lastName,\n                                                playerStruct.email,\n                                                playerStruct.college,\n                                                playerStruct.major);\n\n        raffles[_raffleId].winner = Winner(raffles[_raffleId].goal,\n                                           raffles[_raffleId].player[winnerAddress].id,\n                                           raffles[_raffleId].player[winnerAddress].firstName,\n                                           raffles[_raffleId].player[winnerAddress].lastName,\n                                           raffles[_raffleId].player[winnerAddress].email,\n                                           raffles[_raffleId].player[winnerAddress].college,\n                                           raffles[_raffleId].player[winnerAddress].major);\n\n        getWinner(_raffleId);\n\n    }\n\n    //once raffle is over, admin can call this funtion to get winner's details\n    function getWinner(uint _raffleId) public constant onlyAdmin returns (address, bytes32, bytes32, string, string, string) {\n\n            return (raffles[_raffleId].winner.id,\n                    raffles[_raffleId].winner.firstName,\n                    raffles[_raffleId].winner.lastName,\n                    raffles[_raffleId].winner.email,\n                    raffles[_raffleId].winner.college,\n                    raffles[_raffleId].winner.major\n                    );\n    }\n\n    function contractdisable() public onlyAdmin {\n        require (admin == msg.sender);\n        selfdestruct(admin);\n    }\n\n}\n\n",
  "sourcePath": "/Users/student_39/Desktop/dapp-projects/the-hive/contracts/Raffles.sol",
  "compiler": {
    "name": "solc",
    "version": "0.4.23+commit.124ca40d.Emscripten.clang"
  },
  "schemaVersion": "2.0.0",
  "updatedAt": "2018-09-21T06:40:21.430Z"
}